:020000000329D2
:0E000600213083120313FD00FD0B07280800B4
:100014000F3083120313FC004730FD00FD0B102842
:0A002400FC0B10280000000008008B
:06002E00000000000800C4
:1000340083120313BE1B20288811212888153E1B18
:100044002528081126280815BE1A2A2888102B28C6
:1000540088143E1A2F280810302808143818342819
:10006400081635280812881617208812BE193C284D
:1000740088113D2888153E19412808114228081581
:10008400BE1846288810472888143E184B280810A4
:100094004C280814381850280816512808128816B5
:1000A40017208812381C58280A20592803200800D1
:0E00B4008312031337088A0036088200080002
:1000C2008312031338103D08BE001A2038140800AA
:1000D2008316031388120812081088100811881159
:1000E20083128812081288110811881008100A2039
:1000F2000A200A20881408148816172088120A2059
:100102008816172088120A208816172088120A20BB
:1001120008108816172088120A20881617208812BD
:10012200881088158816172088120A20881108144A
:1001320088161720881208108816172088120A209D
:1001420088161720881208148816172088120A2089
:1001520008108816172088128815081588140814A4
:0C0162008816172088120A2038140800A4
:10016E00C928803083120313B900DC28C030B900CF
:10017E00DC289430B900DC28D430B900DC2880307B
:10018E00B900DC28831203133908013A0319B82881
:10019E003908023A0319BD283908033A0319C02851
:1001AE003908043A0319C328C6283A03F00039085F
:1001BE00F0077008B9007008BE001A203810BC0194
:1001CE003C083B07840000080319F5283C083B0750
:1001DE0084000008BD006120BC0AE728381408001E
:1001EE005A208A110A128000840AB60A0319B70A25
:0801FE00F003031DF7280800BF
:10020600393083120313A000A1013730A200A301E5
:100216003430A400A5013230A600A7013830A8006A
:10022600A9013530AA00AB013330AC00AD01363040
:10023600AE00AF013030B000B1013130B200B301D1
:100246003A30B400B50183160317880189010313F8
:100256008801F0308600870169200130BE001A202F
:100266000C30BE001A200130B9000130BA0034301B
:10027600BB00B7200614061E47290130B90001301D
:10028600BA003230BB00B720861E50290130B900B3
:100296000130BA002430BB00B720061F59290130AF
:1002A600B9000130BA002230BB00B7200610861410
:1002B600061E64290130B9000130BA002630BB00A1
:1002C600B720861E6D290130B9000130BA002A30E8
:1002D600BB00B720061F76290130B9000130BA00ED
:1002E6002830BB00B720861F7F290130B9000130B6
:1002F600BA003030BB00B72086100615061E8A29C4
:100306000130B9000130BA002C30BB00B720861E80
:1003160093290130B9000130BA002E30BB00B72056
:10032600061F9C290130B9000130BA002030BB00FD
:08033600B72006113D299E29A4
:04400E00F22F000786
:00000001FF
