:020000000329D2
:0E000600213083120313FD00FD0B07280800B4
:100014000F3083120313FC004730FD00FD0B102842
:0A002400FC0B10280000000008008B
:06002E00000000000800C4
:1000340083120313CE1B20288511212885154E1BFE
:100044002528051126280515CE1A2A2885102B28BF
:1000540085144E1A2F280510302805144818342802
:10006400051635280512851617208512CE193C2849
:1000740085113D2885154E1941280511422805157D
:10008400CE1846288510472885144E184B2805108D
:100094004C280514481850280516512805128516B1
:1000A40017208512481C58280A20592803200800C4
:0E00B4008312031347088A00460882000800E2
:1000C2008312031348104D08CE001A20481408006A
:1000D200831603138512051205108510051185116B
:1000E20083128512051285110511851005100A204B
:1000F2000A200A20851405148516172085120A2065
:100102008516172085120A208516172085120A20C7
:1001120005108516172085120A20851617208512CC
:10012200851085158516172085120A20851105145C
:1001320085161720851205108516172085120A20AC
:1001420085161720851205148516172085120A2098
:1001520005108516172085128515051585140514B9
:0C0162008516172085120A20481408009A
:10016E00C928803083120313C900DC28C030C900AF
:10017E00DC289430C900DC28D430C900DC2880305B
:10018E00C900DC28831203134908013A0319B82861
:10019E004908023A0319BD284908033A0319C02831
:1001AE004908043A0319C328C6284A03F00049082F
:1001BE00F0077008C9007008CE001A204810CC0154
:1001CE004C084B07840000080319F5284C084B0710
:1001DE0084000008CD006120CC0AE72848140800EE
:1001EE005A208A110A128000840AC60A0319C70A05
:0801FE00F003031DF7280800BF
:1002060098218316031788018901FF30031385009F
:100216008801F0308600870169200130CE001A205F
:100226000C30CE001A200130C9000130CA0020303F
:10023600CB00B7200614061E2029861E2929013068
:10024600C9000230CA002830CB00B720061F322969
:100256000130C9000230CA003230CB00B720061088
:100266008614061E3629861E3F290130C900023033
:10027600CA002D30CB00B720061F48290130C9001F
:100286000230CA002230CB00B720861F5129013028
:10029600C9000230CA003D30CB00B72086100615D3
:1002A600061E5529861E5E290130C9000230CA0085
:1002B6004230CB00B720061F69296730870001301E
:1002C600C9000230CA003830CB00B72006111D29FC
:0202D6006B2992
:1003300020308400263083120313F0007130C60091
:080340000130C700F72008009E
:0402E2003A34003476
:0C02E60045344934473448345434003463
:0A02F20046344F34553452340034C2
:0A02FC0046344934563445340034CA
:0C03060053344534563445344E34003432
:0A0312004E3449344E3445340034B3
:0A031C005A34453452344F34003493
:0803260053344934583400340B
:04400E00F22F000786
:00000001FF
