:020000000329D2
:0E000600213083120313FD00FD0B07280800B4
:100014000F3083120313FC004730FD00FD0B102842
:0A002400FC0B10280000000008008B
:06002E00000000000800C4
:1000340083120313B01B2028881121288815301B34
:100044002528081126280815B01A2A2888102B28D4
:100054008814301A2F280810302808142818342837
:10006400081635280812881617208812B0193C285B
:1000740088113D288815301941280811422808158F
:10008400B018462888104728881430184B280810C0
:100094004C280814281850280816512808128816C5
:1000A40017208812281C58280A20592803200800E1
:0E00B400831203132A088A002908820008001C
:1000C2008312031328102F08B0001A2028140800E6
:1000D2008316031388120812081088100811881159
:1000E20083128812081288110811881008100A2039
:1000F2000A200A20881408148816172088120A2059
:100102008816172088120A208816172088120A20BB
:1001120008108816172088120A20881617208812BD
:10012200881088158816172088120A20881108144A
:1001320088161720881208108816172088120A209D
:1001420088161720881208148816172088120A2089
:1001520008108816172088128815081588140814A4
:0C0162008816172088120A2028140800B4
:10016E00C928803083120313AB00DC28C030AB00EB
:10017E00DC289430AB00DC28D430AB00DC28803097
:10018E00AB00DC28831203132B08013A0319B8289D
:10019E002B08023A0319BD282B08033A0319C0286D
:1001AE002B08043A0319C328C6282C03F0002B0889
:1001BE00F0077008AB007008B0001A202810AE01CE
:1001CE002E082D07840000080319F5282E082D0788
:1001DE0084000008AF006120AE0AE728281408004A
:1001EE005A208A110A128000840AA90A0319AA0A3F
:0801FE00F003031DF7280800BF
:10020600343083120313A000A1013130A200A301F0
:100216003230A400A5013A30A600A70183160317C1
:100226008801890103138801F0308600870169205F
:100236000130B0001A200C30B0001A200130AB009B
:100246000130AC002630AD00B7200614061E322958
:100256000130AB000130AC002230AD00B720861E65
:100266003B290130AB000130AC002030AD00B72097
:1002760006108614061E46290130AB000130AC007C
:0C0286002430AD00B7208610282948293C
:04400E00F22F000786
:00000001FF
